{
  "contractName": "Aposta",
  "abi": [
    {
      "constant": true,
      "inputs": [
        {
          "name": "",
          "type": "uint256"
        }
      ],
      "name": "Times",
      "outputs": [
        {
          "name": "ID",
          "type": "uint256"
        },
        {
          "name": "nome",
          "type": "string"
        },
        {
          "name": "quantiaApostada",
          "type": "uint256"
        }
      ],
      "payable": false,
      "stateMutability": "view",
      "type": "function"
    },
    {
      "constant": true,
      "inputs": [],
      "name": "numeroTime",
      "outputs": [
        {
          "name": "",
          "type": "uint256"
        }
      ],
      "payable": false,
      "stateMutability": "view",
      "type": "function"
    },
    {
      "constant": true,
      "inputs": [],
      "name": "numeroDeApostadores",
      "outputs": [
        {
          "name": "",
          "type": "uint256"
        }
      ],
      "payable": false,
      "stateMutability": "view",
      "type": "function"
    },
    {
      "constant": true,
      "inputs": [
        {
          "name": "",
          "type": "address"
        }
      ],
      "name": "apostadores",
      "outputs": [
        {
          "name": "",
          "type": "bool"
        }
      ],
      "payable": false,
      "stateMutability": "view",
      "type": "function"
    },
    {
      "inputs": [],
      "payable": false,
      "stateMutability": "nonpayable",
      "type": "constructor"
    },
    {
      "payable": true,
      "stateMutability": "payable",
      "type": "fallback"
    },
    {
      "anonymous": false,
      "inputs": [
        {
          "indexed": true,
          "name": "_TimeID",
          "type": "uint256"
        }
      ],
      "name": "apostaEvent",
      "type": "event"
    },
    {
      "constant": false,
      "inputs": [
        {
          "name": "ID",
          "type": "uint256"
        }
      ],
      "name": "apostar",
      "outputs": [],
      "payable": true,
      "stateMutability": "payable",
      "type": "function"
    }
  ],
  "bytecode": "0x6080604052600060035534801561001557600080fd5b506100636040805190810160405280600681526020017f54696d65204100000000000000000000000000000000000000000000000000008152506100b5640100000000026401000000009004565b6100b06040805190810160405280600681526020017f54696d65204200000000000000000000000000000000000000000000000000008152506100b5640100000000026401000000009004565b6101d6565b600260008154809291906001019190505550606060405190810160405280600254815260200182815260200160008152506000806002548152602001908152602001600020600082015181600001556020820151816001019080519060200190610120929190610131565b506040820151816002015590505050565b828054600181600116156101000203166002900490600052602060002090601f016020900481019282601f1061017257805160ff19168380011785556101a0565b828001600101855582156101a0579182015b8281111561019f578251825591602001919060010190610184565b5b5090506101ad91906101b1565b5090565b6101d391905b808211156101cf5760008160009055506001016101b7565b5090565b90565b610483806101e56000396000f30060806040526004361061006d576000357c0100000000000000000000000000000000000000000000000000000000900463ffffffff1680631a14c0021461006f57806357505796146101235780639fabcc461461014e578063d0349c1b14610179578063f57563ad14610199575b005b34801561007b57600080fd5b5061009a600480360381019080803590602001909291905050506101f4565b6040518084815260200180602001838152602001828103825284818151815260200191508051906020019080838360005b838110156100e65780820151818401526020810190506100cb565b50505050905090810190601f1680156101135780820380516001836020036101000a031916815260200191505b5094505050505060405180910390f35b34801561012f57600080fd5b506101386102b6565b6040518082815260200191505060405180910390f35b34801561015a57600080fd5b506101636102bc565b6040518082815260200191505060405180910390f35b610197600480360381019080803590602001909291905050506102c2565b005b3480156101a557600080fd5b506101da600480360381019080803573ffffffffffffffffffffffffffffffffffffffff169060200190929190505050610437565b604051808215151515815260200191505060405180910390f35b6000602052806000526040600020600091509050806000015490806001018054600181600116156101000203166002900480601f0160208091040260200160405190810160405280929190818152602001828054600181600116156101000203166002900480156102a65780601f1061027b576101008083540402835291602001916102a6565b820191906000526020600020905b81548152906001019060200180831161028957829003601f168201915b5050505050908060020154905083565b60025481565b60035481565b6000600160003373ffffffffffffffffffffffffffffffffffffffff1673ffffffffffffffffffffffffffffffffffffffff16815260200190815260200160002060009054906101000a900460ff1615151561031d57600080fd5b66038d7ea4c680003411801561033c57506802b5e3af16b18800003411155b151561034757600080fd5b6000821015801561035a57506002548211155b151561036557600080fd5b60026003541115151561037757600080fd5b34905060018060003373ffffffffffffffffffffffffffffffffffffffff1673ffffffffffffffffffffffffffffffffffffffff16815260200190815260200160002060006101000a81548160ff0219169083151502179055508060008084815260200190815260200160002060020160008282540192505081905550600360008154809291906001019190505550817f5d5bb44df5eccb354fea9da79d82d67fe857c16f1651a00740f5022eb5091abc60405160405180910390a25050565b60016020528060005260406000206000915054906101000a900460ff16815600a165627a7a72305820982cb17d6d7c8426558d2ffa306a4f1e59ec8f222b4ab0ed1e8e0cd7d40036220029",
  "source": "pragma solidity ^0.4.24;\n\nimport './Oracolo.sol';\n\ncontract Aposta{\n\n    struct Time{\n        uint ID;\n        string nome;\n        uint quantiaApostada;        \n    }  \n\n    event apostaEvent (\n        uint indexed _TimeID        \n    ); \n\n    //Oracolo c = new Oracolo();\n\n    function () external payable { }\n    mapping(uint => Time) public Times;\n\n    mapping(address => bool) public apostadores;\n\n    uint public numeroTime;\n    uint public numeroDeApostadores = 0;\n\n    function adicionarTime(string _nome) private {\n        numeroTime++;\n        Times[numeroTime] = Time(numeroTime, _nome, 0);\n    }\n    \n    function apostar(uint ID) public payable {\n        \n        require(!apostadores[msg.sender]);  \n        require(msg.value > 0.001 ether && msg.value <= 50 ether);\n        require(ID >= 0 && ID <= numeroTime);\n        require(numeroDeApostadores <= 2);\n\n        uint quantia = msg.value;\n        apostadores[msg.sender] = true;\n        Times[ID].quantiaApostada += quantia;\n        numeroDeApostadores++;\n\n        emit apostaEvent(ID);\n    }    \n\n    constructor() public {\n        adicionarTime('Time A');\n        adicionarTime('Time B');\n    }  \n}",
  "sourcePath": "C:\\Users\\vitor\\OneDrive\\Documentos\\Smart Contract\\apostasc\\contracts\\Aposta.sol",
  "compiler": {
    "name": "solc",
    "version": "0.4.24+commit.e67f0147.Emscripten.clang"
  },
  "schemaVersion": "2.0.1",
  "updatedAt": "2018-10-29T05:03:46.987Z"
}