{
  "contractName": "Aposta",
  "abi": [
    {
      "constant": true,
      "inputs": [
        {
          "name": "",
          "type": "uint256"
        }
      ],
      "name": "alternativas",
      "outputs": [
        {
          "name": "ID",
          "type": "uint256"
        },
        {
          "name": "nome",
          "type": "string"
        },
        {
          "name": "quantiaApostada",
          "type": "uint256"
        }
      ],
      "payable": false,
      "stateMutability": "view",
      "type": "function"
    },
    {
      "constant": true,
      "inputs": [],
      "name": "numeroAlternativa",
      "outputs": [
        {
          "name": "",
          "type": "uint256"
        }
      ],
      "payable": false,
      "stateMutability": "view",
      "type": "function"
    },
    {
      "constant": true,
      "inputs": [
        {
          "name": "",
          "type": "address"
        }
      ],
      "name": "apostadores",
      "outputs": [
        {
          "name": "",
          "type": "bool"
        }
      ],
      "payable": false,
      "stateMutability": "view",
      "type": "function"
    },
    {
      "inputs": [],
      "payable": false,
      "stateMutability": "nonpayable",
      "type": "constructor"
    },
    {
      "anonymous": false,
      "inputs": [
        {
          "indexed": true,
          "name": "_alternativaID",
          "type": "uint256"
        }
      ],
      "name": "apostaEvent",
      "type": "event"
    },
    {
      "constant": false,
      "inputs": [
        {
          "name": "ID",
          "type": "uint256"
        },
        {
          "name": "quantia",
          "type": "uint256"
        }
      ],
      "name": "apostar",
      "outputs": [],
      "payable": false,
      "stateMutability": "nonpayable",
      "type": "function"
    }
  ],
  "bytecode": "0x608060405234801561001057600080fd5b5061005e6040805190810160405280600681526020017f54696d65204100000000000000000000000000000000000000000000000000008152506100b0640100000000026401000000009004565b6100ab6040805190810160405280600681526020017f54696d65204200000000000000000000000000000000000000000000000000008152506100b0640100000000026401000000009004565b6101d1565b60026000815480929190600101919050555060606040519081016040528060025481526020018281526020016000815250600080600254815260200190815260200160002060008201518160000155602082015181600101908051906020019061011b92919061012c565b506040820151816002015590505050565b828054600181600116156101000203166002900490600052602060002090601f016020900481019282601f1061016d57805160ff191683800117855561019b565b8280016001018555821561019b579182015b8281111561019a57825182559160200191906001019061017f565b5b5090506101a891906101ac565b5090565b6101ce91905b808211156101ca5760008160009055506001016101b2565b5090565b90565b61041d806101e06000396000f300608060405260043610610062576000357c0100000000000000000000000000000000000000000000000000000000900463ffffffff1680632f05313414610067578063b3b72c861461011b578063f2f6da3e14610146578063f57563ad1461017d575b600080fd5b34801561007357600080fd5b50610092600480360381019080803590602001909291905050506101d8565b6040518084815260200180602001838152602001828103825284818151815260200191508051906020019080838360005b838110156100de5780820151818401526020810190506100c3565b50505050905090810190601f16801561010b5780820380516001836020036101000a031916815260200191505b5094505050505060405180910390f35b34801561012757600080fd5b5061013061029a565b6040518082815260200191505060405180910390f35b34801561015257600080fd5b5061017b60048036038101908080359060200190929190803590602001909291905050506102a0565b005b34801561018957600080fd5b506101be600480360381019080803573ffffffffffffffffffffffffffffffffffffffff1690602001909291905050506103d1565b604051808215151515815260200191505060405180910390f35b6000602052806000526040600020600091509050806000015490806001018054600181600116156101000203166002900480601f01602080910402602001604051908101604052809291908181526020018280546001816001161561010002031660029004801561028a5780601f1061025f5761010080835404028352916020019161028a565b820191906000526020600020905b81548152906001019060200180831161026d57829003601f168201915b5050505050908060020154905083565b60025481565b600160003373ffffffffffffffffffffffffffffffffffffffff1673ffffffffffffffffffffffffffffffffffffffff16815260200190815260200160002060009054906101000a900460ff161515156102f957600080fd5b60008111151561030857600080fd5b6000821015801561031b57506002548211155b151561032657600080fd5b60018060003373ffffffffffffffffffffffffffffffffffffffff1673ffffffffffffffffffffffffffffffffffffffff16815260200190815260200160002060006101000a81548160ff0219169083151502179055508060008084815260200190815260200160002060020160008282540192505081905550817f5d5bb44df5eccb354fea9da79d82d67fe857c16f1651a00740f5022eb5091abc60405160405180910390a25050565b60016020528060005260406000206000915054906101000a900460ff16815600a165627a7a72305820e1aab24a796767674d09a2a9b9add4dc9f53cdcb03f054f4a93c9c29b8de027a0029",
  "source": "pragma solidity ^0.4.24;\r\n\r\ncontract Aposta{\r\n\r\n    struct Alternativa{\r\n        uint ID;\r\n        string nome;\r\n        uint quantiaApostada;\r\n    }  \r\n\r\n    event apostaEvent (\r\n        uint indexed _alternativaID\r\n    ); \r\n\r\n    mapping(uint => Alternativa) public alternativas;\r\n\r\n    mapping(address => bool) public apostadores;\r\n\r\n    uint public numeroAlternativa;\r\n\r\n    function adicionarAlternativa(string _nome) private {\r\n        numeroAlternativa++;\r\n        alternativas[numeroAlternativa] = Alternativa(numeroAlternativa, _nome, 0);\r\n    }\r\n\r\n    function apostar(uint ID, uint quantia) public {\r\n\r\n        require(!apostadores[msg.sender]);        \r\n\r\n        require(quantia > 0);\r\n\r\n        require(ID >= 0 && ID <= numeroAlternativa);\r\n\r\n        apostadores[msg.sender] = true;\r\n\r\n        alternativas[ID].quantiaApostada += quantia;\r\n\r\n        emit apostaEvent(ID);\r\n    }  \r\n\r\n    constructor() public{\r\n        adicionarAlternativa('Time A');\r\n        adicionarAlternativa('Time B');\r\n    }  \r\n}",
  "sourcePath": "C:\\Users\\vitor\\OneDrive\\Documentos\\Smart Contract\\Bolão\\contracts\\Aposta.sol",
  "compiler": {
    "name": "solc",
    "version": "0.4.24+commit.e67f0147.Emscripten.clang"
  },
  "schemaVersion": "2.0.1",
  "updatedAt": "2018-10-12T18:06:18.715Z"
}