{
  "contractName": "Aposta",
  "abi": [
    {
      "constant": true,
      "inputs": [
        {
          "name": "",
          "type": "uint256"
        }
      ],
      "name": "Times",
      "outputs": [
        {
          "name": "ID",
          "type": "uint8"
        },
        {
          "name": "nome",
          "type": "string"
        },
        {
          "name": "quantiaApostada",
          "type": "uint256"
        }
      ],
      "payable": false,
      "stateMutability": "view",
      "type": "function"
    },
    {
      "constant": true,
      "inputs": [],
      "name": "numeroTime",
      "outputs": [
        {
          "name": "",
          "type": "uint8"
        }
      ],
      "payable": false,
      "stateMutability": "view",
      "type": "function"
    },
    {
      "constant": true,
      "inputs": [],
      "name": "numeroDeApostadores",
      "outputs": [
        {
          "name": "",
          "type": "uint8"
        }
      ],
      "payable": false,
      "stateMutability": "view",
      "type": "function"
    },
    {
      "constant": true,
      "inputs": [
        {
          "name": "",
          "type": "address"
        }
      ],
      "name": "apostadores",
      "outputs": [
        {
          "name": "",
          "type": "bool"
        }
      ],
      "payable": false,
      "stateMutability": "view",
      "type": "function"
    },
    {
      "inputs": [],
      "payable": false,
      "stateMutability": "nonpayable",
      "type": "constructor"
    },
    {
      "payable": true,
      "stateMutability": "payable",
      "type": "fallback"
    },
    {
      "anonymous": false,
      "inputs": [
        {
          "indexed": true,
          "name": "_TimeID",
          "type": "uint8"
        }
      ],
      "name": "apostaEvent",
      "type": "event"
    },
    {
      "constant": false,
      "inputs": [
        {
          "name": "ID",
          "type": "uint8"
        }
      ],
      "name": "apostar",
      "outputs": [],
      "payable": true,
      "stateMutability": "payable",
      "type": "function"
    }
  ],
  "bytecode": "0x608060405261000c610204565b604051809103906000f080158015610028573d6000803e3d6000fd5b506000806101000a81548173ffffffffffffffffffffffffffffffffffffffff021916908373ffffffffffffffffffffffffffffffffffffffff1602179055506000600360016101000a81548160ff021916908360ff16021790555034801561009057600080fd5b506100de6040805190810160405280600681526020017f54696d6520410000000000000000000000000000000000000000000000000000815250610130640100000000026401000000009004565b61012b6040805190810160405280600681526020017f54696d6520420000000000000000000000000000000000000000000000000000815250610130640100000000026401000000009004565b6102b9565b6003600081819054906101000a900460ff168092919060010191906101000a81548160ff021916908360ff16021790555050606060405190810160405280600360009054906101000a900460ff1660ff168152602001828152602001600081525060016000600360009054906101000a900460ff1660ff16815260200190815260200160002060008201518160000160006101000a81548160ff021916908360ff16021790555060208201518160010190805190602001906101f3929190610214565b506040820151816002015590505050565b60405161035d806108fc83390190565b828054600181600116156101000203166002900490600052602060002090601f016020900481019282601f1061025557805160ff1916838001178555610283565b82800160010185558215610283579182015b82811115610282578251825591602001919060010190610267565b5b5090506102909190610294565b5090565b6102b691905b808211156102b257600081600090555060010161029a565b5090565b90565b610634806102c86000396000f30060806040526004361061006d576000357c0100000000000000000000000000000000000000000000000000000000900463ffffffff1680631a14c0021461006f57806357505796146101295780639fabcc461461015a578063b4a724121461018b578063f57563ad146101ae575b005b34801561007b57600080fd5b5061009a60048036038101908080359060200190929190505050610209565b604051808460ff1660ff16815260200180602001838152602001828103825284818151815260200191508051906020019080838360005b838110156100ec5780820151818401526020810190506100d1565b50505050905090810190601f1680156101195780820380516001836020036101000a031916815260200191505b5094505050505060405180910390f35b34801561013557600080fd5b5061013e6102d8565b604051808260ff1660ff16815260200191505060405180910390f35b34801561016657600080fd5b5061016f6102eb565b604051808260ff1660ff16815260200191505060405180910390f35b6101ac600480360381019080803560ff1690602001909291905050506102fe565b005b3480156101ba57600080fd5b506101ef600480360381019080803573ffffffffffffffffffffffffffffffffffffffff1690602001909291905050506105e8565b604051808215151515815260200191505060405180910390f35b60016020528060005260406000206000915090508060000160009054906101000a900460ff1690806001018054600181600116156101000203166002900480601f0160208091040260200160405190810160405280929190818152602001828054600181600116156101000203166002900480156102c85780601f1061029d576101008083540402835291602001916102c8565b820191906000526020600020905b8154815290600101906020018083116102ab57829003601f168201915b5050505050908060020154905083565b600360009054906101000a900460ff1681565b600360019054906101000a900460ff1681565b600260003373ffffffffffffffffffffffffffffffffffffffff1673ffffffffffffffffffffffffffffffffffffffff16815260200190815260200160002060009054906101000a900460ff1615151561035757600080fd5b66038d7ea4c680003411801561037657506802b5e3af16b18800003411155b151561038157600080fd5b600360009054906101000a900460ff1660ff168160ff16111515156103a557600080fd5b6002600360019054906101000a900460ff1660ff16111515156103c757600080fd5b6000809054906101000a900473ffffffffffffffffffffffffffffffffffffffff1673ffffffffffffffffffffffffffffffffffffffff16630ace55083433600160008660ff16815260200190815260200160002060000160009054906101000a900460ff166040518463ffffffff167c0100000000000000000000000000000000000000000000000000000000028152600401808481526020018373ffffffffffffffffffffffffffffffffffffffff1673ffffffffffffffffffffffffffffffffffffffff1681526020018260ff1660ff1681526020019350505050602060405180830381600087803b1580156104bf57600080fd5b505af11580156104d3573d6000803e3d6000fd5b505050506040513d60208110156104e957600080fd5b810190808051906020019092919050505050346004819055506001600260003373ffffffffffffffffffffffffffffffffffffffff1673ffffffffffffffffffffffffffffffffffffffff16815260200190815260200160002060006101000a81548160ff021916908315150217905550600454600160008360ff168152602001908152602001600020600201600082825401925050819055506003600181819054906101000a900460ff168092919060010191906101000a81548160ff021916908360ff160217905550508060ff167fb1dafb3c3c485ca78bbe6f01bd3db7049ab67897e1a79da9d9ec216f312b6b6860405160405180910390a250565b60026020528060005260406000206000915054906101000a900460ff16815600a165627a7a72305820937080b923ef4fdc517479904daea67df027f343099e42d440d7f7c768604b360029608060405234801561001057600080fd5b5061033d806100206000396000f300608060405260043610610057576000357c0100000000000000000000000000000000000000000000000000000000900463ffffffff1680630ace55081461005c5780631a14c002146100ca57806397635ba314610144575b600080fd5b34801561006857600080fd5b506100b460048036038101908080359060200190929190803573ffffffffffffffffffffffffffffffffffffffff169060200190929190803560ff169060200190929190505050610188565b6040518082815260200191505060405180910390f35b3480156100d657600080fd5b506100f56004803603810190808035906020019092919050505061022e565b604051808360ff1660ff1681526020018273ffffffffffffffffffffffffffffffffffffffff1673ffffffffffffffffffffffffffffffffffffffff1681526020019250505060405180910390f35b34801561015057600080fd5b50610172600480360381019080803560ff16906020019092919050505061027f565b6040518082815260200191505060405180910390f35b6000816000808460ff16815260200190815260200160002060000160006101000a81548160ff021916908360ff160217905550826000808460ff16815260200190815260200160002060000160016101000a81548173ffffffffffffffffffffffffffffffffffffffff021916908373ffffffffffffffffffffffffffffffffffffffff1602179055508360016000828254019250508190555060015490509392505050565b60006020528060005260406000206000915090508060000160009054906101000a900460ff16908060000160019054906101000a900473ffffffffffffffffffffffffffffffffffffffff16905082565b6000806000808460ff16815260200190815260200160002060000160019054906101000a900473ffffffffffffffffffffffffffffffffffffffff1690508073ffffffffffffffffffffffffffffffffffffffff166108fc6001549081150290604051600060405180830381858888f19350505050158015610305573d6000803e3d6000fd5b506001549150509190505600a165627a7a723058202e750b83ad6d0e0692fa123b9cb2d39b435dc8082a50eb3d3b8536df6fa26ad30029",
  "source": "pragma solidity ^0.4.24;\n\ncontract Aposta{\n\n    struct Time{\n        uint8 ID;\n        string nome;\n        uint quantiaApostada;            \n    }  \n\n    event apostaEvent (\n        uint8 indexed _TimeID        \n    ); \n\n    Oracolo oracolo = new Oracolo();\n\n    function () external payable { }\n\n    mapping(uint => Time) public Times;\n    mapping(address => bool) public apostadores;\n\n    uint8 public numeroTime;\n    uint8 public numeroDeApostadores = 0;   \n    uint private quantia; \n\n    function adicionarTime(string _nome) private {\n        numeroTime++;\n        Times[numeroTime] = Time(numeroTime, _nome, 0);\n    }    \n    \n    function apostar(uint8 ID) public payable {\n        \n        require(!apostadores[msg.sender]);  \n        require(msg.value > 0.001 ether && msg.value <= 50 ether);\n        require(ID <= numeroTime);\n        require(numeroDeApostadores <= 2);\n\n        oracolo.armazenarBalanco(msg.value, msg.sender, Times[ID].ID);\n\n        quantia = msg.value;\n        apostadores[msg.sender] = true;\n        Times[ID].quantiaApostada += quantia;        \n        numeroDeApostadores++;\n\n        emit apostaEvent(ID);\n    }    \n\n    constructor() public {\n        adicionarTime('Time A');\n        adicionarTime('Time B');\n    }  \n}\n\ncontract Oracolo{\n\n    struct Time {\n        uint8 ID;\n        address apostador;\n    }      \n\n    mapping(uint => Time) public Times;\n\n    uint private valorArmazenado;\n    uint8 private timeVencedor;\n\n    function armazenarBalanco(uint quantia, address apostador, uint8 idTime) public returns (uint){\n        Times[idTime].ID = idTime;\n        Times[idTime].apostador = apostador;\n\n        valorArmazenado += quantia;   \n        return valorArmazenado;     \n    }\n\n    function anunciarTimeVencedor(uint8 idTimeVencedor) public returns (uint){\n        address enderecoVencedor = Times[idTimeVencedor].apostador;\n\n        enderecoVencedor.transfer(valorArmazenado);\n        return valorArmazenado;\n    }\n\n    function random() private view returns (uint){\n        return now % 2;\n    }\n}",
  "sourcePath": "C:\\Users\\vitor\\OneDrive\\Documentos\\Smart Contract\\apostasc\\contracts\\Aposta.sol",
  "compiler": {
    "name": "solc",
    "version": "0.4.24+commit.e67f0147.Emscripten.clang"
  },
  "schemaVersion": "2.0.1",
  "updatedAt": "2018-11-04T01:23:55.233Z"
}