{
  "contractName": "BetContract",
  "abi": [
    {
      "constant": true,
      "inputs": [],
      "name": "teamNumber",
      "outputs": [
        {
          "name": "",
          "type": "uint8"
        }
      ],
      "payable": false,
      "stateMutability": "view",
      "type": "function"
    },
    {
      "constant": true,
      "inputs": [
        {
          "name": "",
          "type": "address"
        }
      ],
      "name": "bettors",
      "outputs": [
        {
          "name": "",
          "type": "bool"
        }
      ],
      "payable": false,
      "stateMutability": "view",
      "type": "function"
    },
    {
      "constant": true,
      "inputs": [],
      "name": "numberOfBettors",
      "outputs": [
        {
          "name": "",
          "type": "uint8"
        }
      ],
      "payable": false,
      "stateMutability": "view",
      "type": "function"
    },
    {
      "constant": true,
      "inputs": [
        {
          "name": "",
          "type": "uint256"
        }
      ],
      "name": "Teams",
      "outputs": [
        {
          "name": "ID",
          "type": "uint8"
        },
        {
          "name": "Name",
          "type": "string"
        },
        {
          "name": "amountWagered",
          "type": "uint256"
        },
        {
          "name": "chosen",
          "type": "bool"
        }
      ],
      "payable": false,
      "stateMutability": "view",
      "type": "function"
    },
    {
      "inputs": [],
      "payable": false,
      "stateMutability": "nonpayable",
      "type": "constructor"
    },
    {
      "payable": true,
      "stateMutability": "payable",
      "type": "fallback"
    },
    {
      "anonymous": false,
      "inputs": [
        {
          "indexed": true,
          "name": "_TeamID",
          "type": "uint256"
        }
      ],
      "name": "betEvent",
      "type": "event"
    },
    {
      "constant": true,
      "inputs": [],
      "name": "getBalance",
      "outputs": [
        {
          "name": "",
          "type": "uint256"
        }
      ],
      "payable": false,
      "stateMutability": "view",
      "type": "function"
    },
    {
      "constant": true,
      "inputs": [],
      "name": "getBalanceInstance",
      "outputs": [
        {
          "name": "",
          "type": "uint256"
        }
      ],
      "payable": false,
      "stateMutability": "view",
      "type": "function"
    },
    {
      "constant": false,
      "inputs": [
        {
          "name": "ID",
          "type": "uint256"
        }
      ],
      "name": "bet",
      "outputs": [],
      "payable": true,
      "stateMutability": "payable",
      "type": "function"
    },
    {
      "constant": false,
      "inputs": [],
      "name": "getWinner",
      "outputs": [
        {
          "name": "",
          "type": "uint256"
        }
      ],
      "payable": false,
      "stateMutability": "nonpayable",
      "type": "function"
    },
    {
      "constant": true,
      "inputs": [
        {
          "name": "_id",
          "type": "uint8"
        }
      ],
      "name": "getTeamsInstance",
      "outputs": [
        {
          "name": "",
          "type": "address"
        }
      ],
      "payable": false,
      "stateMutability": "view",
      "type": "function"
    }
  ],
  "bytecode": "0x608060405234801561001057600080fd5b50610019610211565b604051809103906000f080158015610035573d6000803e3d6000fd5b506000806101000a81548173ffffffffffffffffffffffffffffffffffffffff021916908373ffffffffffffffffffffffffffffffffffffffff1602179055506100c26040805190810160405280600681526020017f5465616d20310000000000000000000000000000000000000000000000000000815250610114640100000000026401000000009004565b61010f6040805190810160405280600681526020017f5465616d20320000000000000000000000000000000000000000000000000000815250610114640100000000026401000000009004565b6102c6565b6003600081819054906101000a900460ff168092919060010191906101000a81548160ff021916908360ff16021790555050608060405190810160405280600360009054906101000a900460ff1660ff168152602001828152602001600081526020016000151581525060016000600360009054906101000a900460ff1660ff16815260200190815260200160002060008201518160000160006101000a81548160ff021916908360ff16021790555060208201518160010190805190602001906101e0929190610221565b506040820151816002015560608201518160030160006101000a81548160ff02191690831515021790555090505050565b60405161056d80610d3983390190565b828054600181600116156101000203166002900490600052602060002090601f016020900481019282601f1061026257805160ff1916838001178555610290565b82800160010185558215610290579182015b8281111561028f578251825591602001919060010190610274565b5b50905061029d91906102a1565b5090565b6102c391905b808211156102bf5760008160009055506001016102a7565b5090565b90565b610a64806102d56000396000f300608060405260043610610099576000357c0100000000000000000000000000000000000000000000000000000000900463ffffffff168063045bbbb21461009b5780630ccbc475146100cc57806312065fe01461013c57806322010c1f1461016757806336e5b088146101c257806338ce4e89146101f35780635d1fa3f4146102b85780637365870b146102e35780638e7ea5b214610303575b005b3480156100a757600080fd5b506100b061032e565b604051808260ff1660ff16815260200191505060405180910390f35b3480156100d857600080fd5b506100fa600480360381019080803560ff169060200190929190505050610341565b604051808273ffffffffffffffffffffffffffffffffffffffff1673ffffffffffffffffffffffffffffffffffffffff16815260200191505060405180910390f35b34801561014857600080fd5b5061015161041b565b6040518082815260200191505060405180910390f35b34801561017357600080fd5b506101a8600480360381019080803573ffffffffffffffffffffffffffffffffffffffff16906020019092919050505061043a565b604051808215151515815260200191505060405180910390f35b3480156101ce57600080fd5b506101d761045a565b604051808260ff1660ff16815260200191505060405180910390f35b3480156101ff57600080fd5b5061021e6004803603810190808035906020019092919050505061046d565b604051808560ff1660ff1681526020018060200184815260200183151515158152602001828103825285818151815260200191508051906020019080838360005b8381101561027a57808201518184015260208101905061025f565b50505050905090810190601f1680156102a75780820380516001836020036101000a031916815260200191505b509550505050505060405180910390f35b3480156102c457600080fd5b506102cd61054f565b6040518082815260200191505060405180910390f35b61030160048036038101908080359060200190929190505050610616565b005b34801561030f57600080fd5b50610318610971565b6040518082815260200191505060405180910390f35b600360009054906101000a900460ff1681565b60008060009054906101000a900473ffffffffffffffffffffffffffffffffffffffff1673ffffffffffffffffffffffffffffffffffffffff1663c009dff1836040518263ffffffff167c0100000000000000000000000000000000000000000000000000000000028152600401808260ff1660ff168152602001915050602060405180830381600087803b1580156103d957600080fd5b505af11580156103ed573d6000803e3d6000fd5b505050506040513d602081101561040357600080fd5b81019080805190602001909291905050509050919050565b60003073ffffffffffffffffffffffffffffffffffffffff1631905090565b60026020528060005260406000206000915054906101000a900460ff1681565b600360019054906101000a900460ff1681565b60016020528060005260406000206000915090508060000160009054906101000a900460ff1690806001018054600181600116156101000203166002900480601f01602080910402602001604051908101604052809291908181526020018280546001816001161561010002031660029004801561052c5780601f106105015761010080835404028352916020019161052c565b820191906000526020600020905b81548152906001019060200180831161050f57829003601f168201915b5050505050908060020154908060030160009054906101000a900460ff16905084565b60008060009054906101000a900473ffffffffffffffffffffffffffffffffffffffff1673ffffffffffffffffffffffffffffffffffffffff166312065fe06040518163ffffffff167c0100000000000000000000000000000000000000000000000000000000028152600401602060405180830381600087803b1580156105d657600080fd5b505af11580156105ea573d6000803e3d6000fd5b505050506040513d602081101561060057600080fd5b8101908080519060200190929190505050905090565b600260003373ffffffffffffffffffffffffffffffffffffffff1673ffffffffffffffffffffffffffffffffffffffff16815260200190815260200160002060009054906101000a900460ff1615151561066f57600080fd5b66038d7ea4c680003411801561068e57506802b5e3af16b18800003411155b151561069957600080fd5b600360009054906101000a900460ff1660ff1681111515156106ba57600080fd5b6002600360019054906101000a900460ff1660ff16111515156106dc57600080fd5b6001600082815260200190815260200160002060030160009054906101000a900460ff1615151561070c57600080fd5b600180600083815260200190815260200160002060030160006101000a81548160ff021916908315150217905550346004819055506001600260003373ffffffffffffffffffffffffffffffffffffffff1673ffffffffffffffffffffffffffffffffffffffff16815260200190815260200160002060006101000a81548160ff02191690831515021790555060045460016000838152602001908152602001600020600201600082825401925050819055506003600181819054906101000a900460ff168092919060010191906101000a81548160ff021916908360ff160217905550506000809054906101000a900473ffffffffffffffffffffffffffffffffffffffff1673ffffffffffffffffffffffffffffffffffffffff166108fc6004549081150290604051600060405180830381858888f1935050505015801561085a573d6000803e3d6000fd5b506000809054906101000a900473ffffffffffffffffffffffffffffffffffffffff1673ffffffffffffffffffffffffffffffffffffffff16636d48b91933836004546040518463ffffffff167c0100000000000000000000000000000000000000000000000000000000028152600401808473ffffffffffffffffffffffffffffffffffffffff1673ffffffffffffffffffffffffffffffffffffffff1681526020018381526020018281526020019350505050600060405180830381600087803b15801561092957600080fd5b505af115801561093d573d6000803e3d6000fd5b50505050807fd5f65d15eb38eb3f1dabb953b382b97c945ae727dd2123f0af6093ff0fc36b6a60405160405180910390a250565b60008060009054906101000a900473ffffffffffffffffffffffffffffffffffffffff1673ffffffffffffffffffffffffffffffffffffffff16632d8cd0966040518163ffffffff167c0100000000000000000000000000000000000000000000000000000000028152600401602060405180830381600087803b1580156109f857600080fd5b505af1158015610a0c573d6000803e3d6000fd5b505050506040513d6020811015610a2257600080fd5b81019080805190602001909291905050509050905600a165627a7a72305820248196f3638068b3e58d642cc30053e63bb2463e4dd632e45f9e51f195bddab50029608060405234801561001057600080fd5b5061002a6001610048640100000000026401000000009004565b6100436002610048640100000000026401000000009004565b6100dc565b60408051908101604052808281526020013373ffffffffffffffffffffffffffffffffffffffff168152506000808381526020019081526020016000206000820151816000015560208201518160010160006101000a81548173ffffffffffffffffffffffffffffffffffffffff021916908373ffffffffffffffffffffffffffffffffffffffff16021790555090505050565b610482806100eb6000396000f300608060405260043610610083576000357c0100000000000000000000000000000000000000000000000000000000900463ffffffff16806312065fe0146100855780632d8cd096146100b057806338ce4e89146100db5780636d48b9191461014f578063b2b98ed214610199578063be827b50146101c4578063c009dff1146101ef575b005b34801561009157600080fd5b5061009a61025f565b6040518082815260200191505060405180910390f35b3480156100bc57600080fd5b506100c561027e565b6040518082815260200191505060405180910390f35b3480156100e757600080fd5b506101066004803603810190808035906020019092919050505061032d565b604051808381526020018273ffffffffffffffffffffffffffffffffffffffff1673ffffffffffffffffffffffffffffffffffffffff1681526020019250505060405180910390f35b610197600480360381019080803573ffffffffffffffffffffffffffffffffffffffff1690602001909291908035906020019092919080359060200190929190505050610371565b005b3480156101a557600080fd5b506101ae6103f4565b6040518082815260200191505060405180910390f35b3480156101d057600080fd5b506101d96103fa565b6040518082815260200191505060405180910390f35b3480156101fb57600080fd5b5061021d600480360381019080803560ff169060200190929190505050610400565b604051808273ffffffffffffffffffffffffffffffffffffffff1673ffffffffffffffffffffffffffffffffffffffff16815260200191505060405180910390f35b60003073ffffffffffffffffffffffffffffffffffffffff1631905090565b600080610289610442565b600281905550600260008154809291906001019190505550600080600254815260200190815260200160002060010160009054906101000a900473ffffffffffffffffffffffffffffffffffffffff1690508073ffffffffffffffffffffffffffffffffffffffff166108fc6001549081150290604051600060405180830381858888f19350505050158015610323573d6000803e3d6000fd5b5060025491505090565b60006020528060005260406000206000915090508060000154908060010160009054906101000a900473ffffffffffffffffffffffffffffffffffffffff16905082565b81600080848152602001908152602001600020600001819055508260008084815260200190815260200160002060010160006101000a81548173ffffffffffffffffffffffffffffffffffffffff021916908373ffffffffffffffffffffffffffffffffffffffff16021790555080600160008282540192505081905550505050565b60025481565b60015481565b60008060008360ff16815260200190815260200160002060010160009054906101000a900473ffffffffffffffffffffffffffffffffffffffff169050919050565b600060024281151561045057fe5b069050905600a165627a7a7230582087499c35f31fb3bff0874ea3665e202f98ce75ebdff101ec95f9c5d79abe83cb0029",
  "source": "pragma solidity ^0.4.24;\n\ncontract BetContract{\n    \n    Oracle private _instance;\n    \n    constructor() public {\n        _instance = new Oracle();\n        addTeam('Team 1');\n        addTeam('Team 2');\n    } \n\n    struct Team{\n        uint8 ID;\n        string Name;\n        uint amountWagered;    \n        bool chosen;        \n    }  \n\n    event betEvent (\n        uint indexed _TeamID        \n    ); \n\n    function () external payable {  }\n    \n    function getBalance() public view returns(uint){\n        return address(this).balance; \n    }\n    \n    function getBalanceInstance() public view returns(uint){\n        return _instance.getBalance();\n    }\n\n    mapping(uint => Team) public Teams;\n    mapping(address => bool) public bettors;\n\n    uint8 public teamNumber;\n    uint8 public numberOfBettors;   \n    uint private Amount; \n\n    function addTeam(string _name) private {\n        teamNumber++;\n        Teams[teamNumber] = Team(teamNumber, _name, 0, false);\n    }    \n    \n    function bet(uint ID) public payable {\n        \n        require(!bettors[msg.sender]);  \n        require(msg.value > 0.001 ether && msg.value <= 50 ether);\n        require(ID <= teamNumber);\n        require(numberOfBettors <= 2);\n        require(!Teams[ID].chosen);\n        \n        Teams[ID].chosen = true;\n        Amount = msg.value;\n        bettors[msg.sender] = true;\n        Teams[ID].amountWagered += Amount;        \n        numberOfBettors++;\n        \n        address(_instance).transfer(Amount);\n        _instance.storeBalance(msg.sender, ID, Amount);\n        \n        emit betEvent(ID);\n    }  \n    \n    function getWinner() public returns (uint){\n        return _instance.announceWinner();\n    }\n    \n    function getTeamsInstance(uint8 _id) public view returns (address) {\n        return _instance.getBettors(_id);\n    }\n}\n\ncontract Oracle{\n\n    struct Team {\n        uint ID;\n        address punter;\n    }   \n\n    constructor() public {\n        addTeam(1);\n        addTeam(2);\n    } \n    \n    mapping(uint => Team) public Teams;\n\n    function () public payable { }\n\n    function addTeam(uint ID) private {        \n        Teams[ID] = Team(ID, msg.sender);\n    } \n    \n    function getBalance() public view returns(uint){\n        return address(this).balance;\n    }\n    \n    uint public amountStored;\n    uint public Winner;\n\n    \n    function storeBalance(address _punter, uint _idTime, uint _balance) payable public {\n        Teams[_idTime].ID = _idTime;\n        Teams[_idTime].punter = _punter;\n        \n        amountStored += _balance;\n    }\n    \n    function getBettors(uint8 _id) public view returns (address){\n        return Teams[_id].punter;\n    }\n\n    function announceWinner() public returns (uint){\n        Winner = random();\n        Winner++;\n        \n        address winnerAddress = Teams[Winner].punter;\n        address(winnerAddress).transfer(amountStored);\n        \n        return Winner;\n    }\n\n    function random() private view returns (uint){\n        return now % 2;\n    }\n}",
  "sourcePath": "C:\\Users\\vitor\\OneDrive\\Documentos\\Smart Contract\\apostasc\\contracts\\Aposta.sol",
  "compiler": {
    "name": "solc",
    "version": "0.4.24+commit.e67f0147.Emscripten.clang"
  },
  "schemaVersion": "2.0.1",
  "updatedAt": "2018-11-09T05:55:51.861Z"
}