{
  "contractName": "Oracolo",
  "abi": [
    {
      "constant": true,
      "inputs": [
        {
          "name": "",
          "type": "uint256"
        }
      ],
      "name": "Times",
      "outputs": [
        {
          "name": "ID",
          "type": "uint8"
        },
        {
          "name": "apostador",
          "type": "address"
        }
      ],
      "payable": false,
      "stateMutability": "view",
      "type": "function"
    },
    {
      "constant": false,
      "inputs": [
        {
          "name": "quantia",
          "type": "uint256"
        },
        {
          "name": "apostador",
          "type": "address"
        },
        {
          "name": "idTime",
          "type": "uint8"
        }
      ],
      "name": "armazenarBalanco",
      "outputs": [
        {
          "name": "",
          "type": "uint256"
        }
      ],
      "payable": false,
      "stateMutability": "nonpayable",
      "type": "function"
    },
    {
      "constant": false,
      "inputs": [],
      "name": "anunciarTimeVencedor",
      "outputs": [
        {
          "name": "",
          "type": "uint256"
        }
      ],
      "payable": false,
      "stateMutability": "nonpayable",
      "type": "function"
    }
  ],
  "bytecode": "0x608060405234801561001057600080fd5b50610346806100206000396000f300608060405260043610610057576000357c0100000000000000000000000000000000000000000000000000000000900463ffffffff1680630ace55081461005c5780631a14c002146100ca57806360abe1f314610144575b600080fd5b34801561006857600080fd5b506100b460048036038101908080359060200190929190803573ffffffffffffffffffffffffffffffffffffffff169060200190929190803560ff16906020019092919050505061016f565b6040518082815260200191505060405180910390f35b3480156100d657600080fd5b506100f560048036038101908080359060200190929190505050610215565b604051808360ff1660ff1681526020018273ffffffffffffffffffffffffffffffffffffffff1673ffffffffffffffffffffffffffffffffffffffff1681526020019250505060405180910390f35b34801561015057600080fd5b50610159610266565b6040518082815260200191505060405180910390f35b6000816000808460ff16815260200190815260200160002060000160006101000a81548160ff021916908360ff160217905550826000808460ff16815260200190815260200160002060000160016101000a81548173ffffffffffffffffffffffffffffffffffffffff021916908373ffffffffffffffffffffffffffffffffffffffff1602179055508360016000828254019250508190555060015490509392505050565b60006020528060005260406000206000915090508060000160009054906101000a900460ff16908060000160019054906101000a900473ffffffffffffffffffffffffffffffffffffffff16905082565b6000806000610273610306565b9150818060010192505060008083815260200190815260200160002060000160019054906101000a900473ffffffffffffffffffffffffffffffffffffffff1690508073ffffffffffffffffffffffffffffffffffffffff166108fc6001549081150290604051600060405180830381858888f193505050501580156102fd573d6000803e3d6000fd5b50819250505090565b600060024281151561031457fe5b069050905600a165627a7a7230582060521f8dcb687e782f2c6677367c9cd25e6dadcb4b2d3cd08b57149d336e9f760029",
  "source": "pragma solidity ^0.4.24;\n\ncontract Aposta{\n\n    struct Time{\n        uint8 ID;\n        string nome;\n        uint quantiaApostada;            \n    }  \n\n    event apostaEvent (\n        uint8 indexed _TimeID        \n    ); \n\n    Oracolo oracolo = new Oracolo();\n\n    function () external payable { }\n\n    mapping(uint => Time) public Times;\n    mapping(address => bool) public apostadores;\n\n    uint8 public numeroTime;\n    uint8 public numeroDeApostadores = 0;   \n    uint private quantia; \n\n    function adicionarTime(string _nome) private {\n        numeroTime++;\n        Times[numeroTime] = Time(numeroTime, _nome, 0);\n    }    \n    \n    function apostar(uint8 ID) public payable {\n        \n        require(!apostadores[msg.sender]);  \n        require(msg.value > 0.001 ether && msg.value <= 50 ether);\n        require(ID <= numeroTime);\n        require(numeroDeApostadores <= 2);\n\n        oracolo.armazenarBalanco(msg.value, msg.sender, Times[ID].ID);\n\n        quantia = msg.value;\n        apostadores[msg.sender] = true;\n        Times[ID].quantiaApostada += quantia;        \n        numeroDeApostadores++;\n\n        emit apostaEvent(ID);\n    }    \n\n    constructor() public {\n        adicionarTime('Time A');\n        adicionarTime('Time B');\n    }  \n}\n\ncontract Oracolo{\n\n    struct Time {\n        uint8 ID;\n        address apostador;\n    }      \n\n    mapping(uint => Time) public Times;\n\n    uint private valorArmazenado;\n    uint8 private timeVencedor;\n\n    function armazenarBalanco(uint quantia, address apostador, uint8 idTime) public returns (uint){\n        Times[idTime].ID = idTime;\n        Times[idTime].apostador = apostador;\n\n        valorArmazenado += quantia;   \n        return valorArmazenado;     \n    }\n\n    function anunciarTimeVencedor() public returns (uint){\n        uint timeVencedor = random();\n        timeVencedor++;\n\n        address enderecoVencedor = Times[timeVencedor].apostador;\n\n        enderecoVencedor.transfer(valorArmazenado);\n        return timeVencedor;\n    }\n\n    function random() private view returns (uint){\n        return now % 2;\n    }\n}",
  "sourcePath": "C:\\Users\\vitor\\OneDrive\\Documentos\\Smart Contract\\apostasc\\contracts\\Aposta.sol",
  "compiler": {
    "name": "solc",
    "version": "0.4.24+commit.e67f0147.Emscripten.clang"
  },
  "schemaVersion": "2.0.1",
  "updatedAt": "2018-11-04T23:11:11.580Z"
}