{
  "contractName": "Oracolo",
  "abi": [
    {
      "constant": true,
      "inputs": [
        {
          "name": "",
          "type": "uint256"
        }
      ],
      "name": "Times",
      "outputs": [
        {
          "name": "ID",
          "type": "uint8"
        },
        {
          "name": "apostador",
          "type": "address"
        }
      ],
      "payable": false,
      "stateMutability": "view",
      "type": "function"
    },
    {
      "constant": true,
      "inputs": [],
      "name": "valorArmazenado",
      "outputs": [
        {
          "name": "",
          "type": "uint256"
        }
      ],
      "payable": false,
      "stateMutability": "view",
      "type": "function"
    },
    {
      "constant": true,
      "inputs": [],
      "name": "timeVencedor",
      "outputs": [
        {
          "name": "",
          "type": "uint256"
        }
      ],
      "payable": false,
      "stateMutability": "view",
      "type": "function"
    },
    {
      "inputs": [],
      "payable": false,
      "stateMutability": "nonpayable",
      "type": "constructor"
    },
    {
      "payable": true,
      "stateMutability": "payable",
      "type": "fallback"
    },
    {
      "constant": false,
      "inputs": [
        {
          "name": "apostador",
          "type": "address"
        },
        {
          "name": "idTime",
          "type": "uint8"
        },
        {
          "name": "quantia",
          "type": "uint256"
        }
      ],
      "name": "armazenarBalanco",
      "outputs": [
        {
          "name": "",
          "type": "uint256"
        }
      ],
      "payable": true,
      "stateMutability": "payable",
      "type": "function"
    },
    {
      "constant": false,
      "inputs": [],
      "name": "anunciarTimeVencedor",
      "outputs": [
        {
          "name": "",
          "type": "uint256"
        }
      ],
      "payable": false,
      "stateMutability": "nonpayable",
      "type": "function"
    }
  ],
  "bytecode": "0x608060405234801561001057600080fd5b5061002a6001610048640100000000026401000000009004565b6100436002610048640100000000026401000000009004565b6100f9565b60408051908101604052808260ff1681526020013373ffffffffffffffffffffffffffffffffffffffff168152506000808360ff16815260200190815260200160002060008201518160000160006101000a81548160ff021916908360ff16021790555060208201518160000160016101000a81548173ffffffffffffffffffffffffffffffffffffffff021916908373ffffffffffffffffffffffffffffffffffffffff16021790555090505050565b6103bd806101086000396000f30060806040526004361061006d576000357c0100000000000000000000000000000000000000000000000000000000900463ffffffff1680631a14c0021461006f5780631e222c78146100e95780632c2286021461011457806360abe1f314610175578063c0ba1c8b146101a0575b005b34801561007b57600080fd5b5061009a600480360381019080803590602001909291905050506101cb565b604051808360ff1660ff1681526020018273ffffffffffffffffffffffffffffffffffffffff1673ffffffffffffffffffffffffffffffffffffffff1681526020019250505060405180910390f35b3480156100f557600080fd5b506100fe61021c565b6040518082815260200191505060405180910390f35b61015f600480360381019080803573ffffffffffffffffffffffffffffffffffffffff169060200190929190803560ff16906020019092919080359060200190929190505050610222565b6040518082815260200191505060405180910390f35b34801561018157600080fd5b5061018a6102c8565b6040518082815260200191505060405180910390f35b3480156101ac57600080fd5b506101b5610377565b6040518082815260200191505060405180910390f35b60006020528060005260406000206000915090508060000160009054906101000a900460ff16908060000160019054906101000a900473ffffffffffffffffffffffffffffffffffffffff16905082565b60015481565b6000826000808560ff16815260200190815260200160002060000160006101000a81548160ff021916908360ff160217905550836000808560ff16815260200190815260200160002060000160016101000a81548173ffffffffffffffffffffffffffffffffffffffff021916908373ffffffffffffffffffffffffffffffffffffffff1602179055508160016000828254019250508190555060015490509392505050565b6000806102d361037d565b600281905550600260008154809291906001019190505550600080600254815260200190815260200160002060000160019054906101000a900473ffffffffffffffffffffffffffffffffffffffff1690508073ffffffffffffffffffffffffffffffffffffffff166108fc6001549081150290604051600060405180830381858888f1935050505015801561036d573d6000803e3d6000fd5b5060025491505090565b60025481565b600060024281151561038b57fe5b069050905600a165627a7a7230582050ec2ef21bbb3ae62ece77be3133c773759fde383385de7a0f7e4d57cca1b8040029",
  "source": "pragma solidity ^0.4.24;\n\ncontract Aposta{\n\n    struct Time{\n        uint8 ID;\n        string nome;\n        uint quantiaApostada;    \n        bool escolhido;        \n    }  \n\n    event apostaEvent (\n        uint8 indexed _TimeID        \n    ); \n\n    Oracolo oracolo = new Oracolo();\n\n    function () external payable { }\n\n    mapping(uint => Time) public Times;\n    mapping(address => bool) public apostadores;\n\n    uint8 public numeroTime;\n    uint8 public numeroDeApostadores = 0;   \n    uint private quantia; \n    uint public balanco;\n\n    function adicionarTime(string _nome) private {\n        numeroTime++;\n        Times[numeroTime] = Time(numeroTime, _nome, 0, false);\n    }    \n    \n    function apostar(uint8 ID) public payable {\n        \n        require(!apostadores[msg.sender]);  \n        require(msg.value > 0.001 ether && msg.value <= 50 ether);\n        require(ID <= numeroTime);\n        require(numeroDeApostadores <= 2);\n        require(!Times[ID].escolhido);\n\n        balanco += address(this).balance;\n        address(oracolo).transfer(msg.value);\n        oracolo.armazenarBalanco(msg.sender, ID, msg.value);\n\n        Times[ID].escolhido = true;\n        quantia = msg.value;\n        apostadores[msg.sender] = true;\n        Times[ID].quantiaApostada += quantia;        \n        numeroDeApostadores++;\n\n        emit apostaEvent(ID);\n    }    \n\n    constructor() public {\n        adicionarTime('Time 1');\n        adicionarTime('Time 2');\n    }  \n}\n\ncontract Oracolo{\n\n    struct Time {\n        uint8 ID;\n        address apostador;\n    }   \n\n    constructor() public {\n        adicionarTime(1);\n        adicionarTime(2);\n    }     \n\n    function () public payable { }\n\n    function adicionarTime(uint8 ID) private {        \n        Times[ID] = Time(ID, msg.sender);\n    } \n\n    mapping(uint => Time) public Times;\n\n    uint public valorArmazenado;\n    uint public timeVencedor;\n\n    function armazenarBalanco(address apostador, uint8 idTime, uint quantia) public payable returns (uint){\n        Times[idTime].ID = idTime;\n        Times[idTime].apostador = apostador;\n        \n        valorArmazenado += quantia;\n          \n        return valorArmazenado;     \n    }\n\n    function anunciarTimeVencedor() public returns (uint){\n        timeVencedor = random();\n        timeVencedor++;\n        \n        \n        address enderecoVencedor = Times[timeVencedor].apostador;\n\n        address(enderecoVencedor).transfer(valorArmazenado);\n        return timeVencedor;\n    }\n\n    function random() private view returns (uint){\n        return now % 2;\n    }\n}",
  "sourcePath": "C:\\Users\\vitor\\OneDrive\\Documentos\\Smart Contract\\apostasc\\contracts\\Aposta.sol",
  "compiler": {
    "name": "solc",
    "version": "0.4.24+commit.e67f0147.Emscripten.clang"
  },
  "schemaVersion": "2.0.1",
  "updatedAt": "2018-11-08T08:22:12.613Z"
}