{
  "contractName": "Oracolo",
  "abi": [
    {
      "constant": true,
      "inputs": [
        {
          "name": "",
          "type": "uint256"
        }
      ],
      "name": "Times",
      "outputs": [
        {
          "name": "ID",
          "type": "uint8"
        },
        {
          "name": "apostador",
          "type": "address"
        }
      ],
      "payable": false,
      "stateMutability": "view",
      "type": "function"
    },
    {
      "constant": true,
      "inputs": [],
      "name": "valorArmazenado",
      "outputs": [
        {
          "name": "",
          "type": "uint256"
        }
      ],
      "payable": false,
      "stateMutability": "view",
      "type": "function"
    },
    {
      "constant": true,
      "inputs": [],
      "name": "timeVencedor",
      "outputs": [
        {
          "name": "",
          "type": "uint8"
        }
      ],
      "payable": false,
      "stateMutability": "view",
      "type": "function"
    },
    {
      "inputs": [],
      "payable": false,
      "stateMutability": "nonpayable",
      "type": "constructor"
    },
    {
      "constant": false,
      "inputs": [
        {
          "name": "apostador",
          "type": "address"
        },
        {
          "name": "idTime",
          "type": "uint8"
        }
      ],
      "name": "armazenarBalanco",
      "outputs": [
        {
          "name": "",
          "type": "uint256"
        }
      ],
      "payable": false,
      "stateMutability": "nonpayable",
      "type": "function"
    },
    {
      "constant": false,
      "inputs": [],
      "name": "anunciarTimeVencedor",
      "outputs": [
        {
          "name": "",
          "type": "uint256"
        }
      ],
      "payable": false,
      "stateMutability": "nonpayable",
      "type": "function"
    }
  ],
  "bytecode": "0x608060405234801561001057600080fd5b5061002a6001610048640100000000026401000000009004565b6100436002610048640100000000026401000000009004565b6100f9565b60408051908101604052808260ff1681526020013373ffffffffffffffffffffffffffffffffffffffff168152506000808360ff16815260200190815260200160002060008201518160000160006101000a81548160ff021916908360ff16021790555060208201518160000160016101000a81548173ffffffffffffffffffffffffffffffffffffffff021916908373ffffffffffffffffffffffffffffffffffffffff16021790555090505050565b61038b806101086000396000f30060806040526004361061006d576000357c0100000000000000000000000000000000000000000000000000000000900463ffffffff1680631a14c002146100725780631e222c78146100ec57806360abe1f314610117578063a9fcbac914610142578063c0ba1c8b146101a6575b600080fd5b34801561007e57600080fd5b5061009d600480360381019080803590602001909291905050506101d7565b604051808360ff1660ff1681526020018273ffffffffffffffffffffffffffffffffffffffff1673ffffffffffffffffffffffffffffffffffffffff1681526020019250505060405180910390f35b3480156100f857600080fd5b50610101610228565b6040518082815260200191505060405180910390f35b34801561012357600080fd5b5061012c61022e565b6040518082815260200191505060405180910390f35b34801561014e57600080fd5b50610190600480360381019080803573ffffffffffffffffffffffffffffffffffffffff169060200190929190803560ff169060200190929190505050610285565b6040518082815260200191505060405180910390f35b3480156101b257600080fd5b506101bb610338565b604051808260ff1660ff16815260200191505060405180910390f35b60006020528060005260406000206000915090508060000160009054906101000a900460ff16908060000160019054906101000a900473ffffffffffffffffffffffffffffffffffffffff16905082565b60015481565b600080600061023b61034b565b9150818060010192505060008083815260200190815260200160002060000160019054906101000a900473ffffffffffffffffffffffffffffffffffffffff169050819250505090565b6000816000808460ff16815260200190815260200160002060000160006101000a81548160ff021916908360ff160217905550826000808460ff16815260200190815260200160002060000160016101000a81548173ffffffffffffffffffffffffffffffffffffffff021916908373ffffffffffffffffffffffffffffffffffffffff1602179055503073ffffffffffffffffffffffffffffffffffffffff1631600181905550600154905092915050565b600260009054906101000a900460ff1681565b600060024281151561035957fe5b069050905600a165627a7a723058206e104fa7444849ba8b72984701b548f8c148d0b379653bac29bce7427bb33e280029",
  "source": "pragma solidity ^0.4.24;\n\ncontract Aposta{\n\n    struct Time{\n        uint8 ID;\n        string nome;\n        uint quantiaApostada;    \n        bool escolhido;        \n    }  \n\n    event apostaEvent (\n        uint8 indexed _TimeID        \n    ); \n\n    Oracolo oracolo = new Oracolo();\n\n    function () external payable { }\n\n    mapping(uint => Time) public Times;\n    mapping(address => bool) public apostadores;\n\n    uint8 public numeroTime;\n    uint8 public numeroDeApostadores = 0;   \n    uint private quantia; \n    uint public balanco;\n\n    function adicionarTime(string _nome) private {\n        numeroTime++;\n        Times[numeroTime] = Time(numeroTime, _nome, 0, false);\n    }    \n    \n    function apostar(uint8 ID) public payable {\n        \n        require(!apostadores[msg.sender]);  \n        require(msg.value > 0.001 ether && msg.value <= 50 ether);\n        require(ID <= numeroTime);\n        require(numeroDeApostadores <= 2);\n        require(!Times[ID].escolhido);\n\n        balanco = address(this).balance;\n        //address(oracolo).transfer(msg.value);\n        oracolo.armazenarBalanco(msg.sender, ID);\n\n        Times[ID].escolhido = true;\n        quantia = msg.value;\n        apostadores[msg.sender] = true;\n        Times[ID].quantiaApostada += quantia;        \n        numeroDeApostadores++;\n\n        emit apostaEvent(ID);\n    }    \n\n    constructor() public {\n        adicionarTime('Time 1');\n        adicionarTime('Time 2');\n    }  \n}\n\ncontract Oracolo{\n\n    struct Time {\n        uint8 ID;\n        address apostador;\n    }   \n\n    constructor() public {\n        adicionarTime(1);\n        adicionarTime(2);\n    } \n\n    function adicionarTime(uint8 ID) private {        \n        Times[ID] = Time(ID, msg.sender);\n    } \n\n    mapping(uint => Time) public Times;\n\n    uint public valorArmazenado;\n    uint8 public timeVencedor;\n\n    function armazenarBalanco(address apostador, uint8 idTime) public returns (uint){\n        Times[idTime].ID = idTime;\n        Times[idTime].apostador = apostador;\n\n        valorArmazenado = address(this).balance;   \n        return valorArmazenado;     \n    }\n\n    function anunciarTimeVencedor() public returns (uint){\n        uint timeVencedor = random();\n        timeVencedor++;\n\n        address enderecoVencedor = Times[timeVencedor].apostador;\n\n        //address(enderecoVencedor).transfer(valorArmazenado);\n        return timeVencedor;\n    }\n\n    function random() private view returns (uint){\n        return now % 2;\n    }\n}",
  "sourcePath": "C:\\Users\\vitor\\OneDrive\\Documentos\\Smart Contract\\apostasc\\contracts\\Aposta.sol",
  "compiler": {
    "name": "solc",
    "version": "0.4.24+commit.e67f0147.Emscripten.clang"
  },
  "schemaVersion": "2.0.1",
  "updatedAt": "2018-11-07T07:39:49.354Z"
}