{
  "contractName": "Oracolo",
  "abi": [
    {
      "constant": false,
      "inputs": [
        {
          "name": "balanco",
          "type": "uint256"
        }
      ],
      "name": "armazenarBalanco",
      "outputs": [
        {
          "name": "valorArmazenado",
          "type": "uint256"
        }
      ],
      "payable": false,
      "stateMutability": "nonpayable",
      "type": "function"
    },
    {
      "constant": false,
      "inputs": [],
      "name": "anunciarTimeVencedor",
      "outputs": [
        {
          "name": "timeVencedor",
          "type": "uint256"
        }
      ],
      "payable": false,
      "stateMutability": "nonpayable",
      "type": "function"
    }
  ],
  "bytecode": "0x608060405234801561001057600080fd5b5060f58061001f6000396000f3006080604052600436106049576000357c0100000000000000000000000000000000000000000000000000000000900463ffffffff16806319ca0abe14604e57806360abe1f314608c575b600080fd5b348015605957600080fd5b5060766004803603810190808035906020019092919050505060b4565b6040518082815260200191505060405180910390f35b348015609757600080fd5b50609e60c0565b6040518082815260200191505060405180910390f35b60008181019050919050565b600060019050905600a165627a7a72305820d5a12146a11aa8485a706f416827cc0b97aedf2cc8ad14a2dbd96906c5d21de00029",
  "source": "pragma solidity ^0.4.24;\n\ncontract Oracolo{    \n\n    function armazenarBalanco(uint balanco) public returns (uint valorArmazenado){\n        valorArmazenado += balanco;        \n    }\n\n    function anunciarTimeVencedor() public returns (uint timeVencedor){\n        timeVencedor = 1;\n    }\n}",
  "sourcePath": "C:\\Users\\vitor\\OneDrive\\Documentos\\Smart Contract\\apostasc\\contracts\\Oracolo.sol",
  "compiler": {
    "name": "solc",
    "version": "0.4.24+commit.e67f0147.Emscripten.clang"
  },
  "schemaVersion": "2.0.1",
  "updatedAt": "2018-10-29T05:03:46.364Z"
}